:020000040800F2
:100000007807002045020008CD0F0008C90F00083E
:10001000CB0F0008B50F0008151000080000000005
:10002000000000000000000000000000D10F0008E8
:10003000B70F000800000000CF0F0008D30F000822
:100040005F0200085F0200085F0200085F0200080C
:100050005F0200085F0200085F0200085F020008FC
:100060005F0200085F0200085F0200085F020008EC
:100070005F0200085F0200085F0200085F020008DC
:100080005F0200085F0200085F0200085F020008CC
:100090005F0200085F0200085F0200085F020008BC
:1000A0005F0200085F0200085F0200085F020008AC
:1000B0005F02000800000000000000005F0200086E
:1000C0005F0200085F0200085F0200085F0200088C
:1000D0005F0200085F0200085F0200085F0200087C
:1000E0005F0200085F02000800000000000000003E
:1000F0000000000000000000000000000000000000
:10010000000000005F020008000000005F0200081D
:1001100000000000000000005F0200085F0200080D
:100120005F0200085F0200085F0200085F0200082B
:100130005F02000800000000000000000000000056
:100140005F0200085F0200085F0200080000000074
:100150005F0200085F0200085F0200085F020008FB
:100160005F0200085F0200085F0200080000000054
:100170005F0200085F0200080000000000000000AD
:100180005F0200085F0200085F02000800F002F84A
:1001900000F049F80AA090E8000C82448344AAF1D8
:1001A0000107DA4501D100F03EF8AFF2090EBAE8D6
:1001B0000F0013F0010F18BFFB1A43F0010318479B
:1001C000200F0000400F0000103A24BF78C878C10B
:1001D000FAD8520724BF30C830C144BF04680C604D
:1001E000704700000023002400250026103A28BF95
:1001F00078C1FBD8520728BF30C148BF0B60704799
:10020000782900F05D80002070471FB500F040FFA6
:100210009DE8030000F0A0FC00F0A6F91FBD10B59A
:1002200000F00BFA10BD00F06EFA1146FFF7EDFF7B
:1002300000F0FEFE00F05EFC03B4FFF7F0FF03BC2D
:1002400000F01CFE0948804709480047FEE7FEE72A
:10025000FEE7FEE7FEE7FEE7FEE7FEE7FEE7FEE776
:1002600004480549054A064B70470000D90F0008AD
:100270008D01000878010020780700207803002015
:10028000780300200FB4044910B503AA029800F0C7
:100290003DF910BC5DF814FB6C00002009684A05AC
:1002A00001D540B27047C905FCD500B27047096856
:1002B0004A0501D5C0B27047C905FCD580B2704768
:1002C00070B504460D4621461068FFF7F0FF2188FF
:1002D000090502D50F4A7A4402E00E4A7A440E32EA
:1002E000002104F1240305E000F00F060009965DEB
:1002F0005E54491C0028F7D120780023000704D55C
:10030000702D02D009B1022311322046BDE87040A1
:1003100000F0A2B8C00D00002DE9F047884606465F
:100320000020DFF8DC90F94430623046F1688847FD
:10033000002862D0252806D0D6E901219047306AEE
:10034000401C3062F1E700254F463046F16888478F
:100350002028044607DB312C05D2381910F8200C70
:1003600008B10543F1E7A80701D525F004056C2C79
:100370000AD0682C08D04C2C38D06A2C34D0742C7D
:1003800034D07A2C32D015E0F168274630468847C1
:10039000B842044609D16C2F26D04FF48060F16832
:1003A000054330468847044604E06C2F1AD04FF4CA
:1003B000807005430CB3A4F14100192802D8203401
:1003C00045F4006542462146304635604546FFF714
:1003D00017FF80B101280BD0ED1D25F0070000F1BB
:1003E0000808A2E74020E4E78020D8E70020D6E70D
:1003F00005F1040899E720469EE7306ABDE8F087DA
:10040000980D00004FF0000200B513469446964642
:10041000203922BFA0E80C50A0E80C50B1F1200117
:10042000BFF4F7AF090728BFA0E80C5048BF0CC0C5
:100430005DF804EB890028BF40F8042B08BF704723
:1004400048BF20F8022B11F0804F18BF00F8012B95
:1004500070477047704770472DE9F0470D46994641
:100460009246044600F124080168880604D5E06934
:1004700021F01001216000E00120A84201DD471BAE
:1004800000E00027A1697A1902EB0900081AA061AF
:100490002078C00602D42046AFF30080002608E092
:1004A000D4E901211AF806009047206A401C761C06
:1004B00020624E45F4DB2078C0060AD52046AFF313
:1004C000008006E0D4E9012130209047206A401CDA
:1004D0002062381EA7F10107F4DC07E0D4E901210E
:1004E00018F805009047206A401C2062281EA5F1DC
:1004F0000105F3DC2046AFF300802078000602D52A
:100500000220BDE8F0870120FBE70000074B70B533
:100510000D467B4400F011F80446284600F020F810
:1005200010B14FF0FF3070BD204670BD010B0000D0
:1005300001694A1C02610878704700B58FB0CDE9A7
:1005400001310021059105497944CDE90310114697
:100550006846FFF7E1FE0FB000BD0000E5FFFFFFBA
:10056000007B00F08000704710B542485421FFF72F
:1005700049FF41485421FFF745FF40485421FFF708
:1005800041FF3F493B483C4A3F4B08603D490A60B8
:100590003A491960531C0365481C10650120086521
:1005A0003B48344A39A1784400F008FA20B9384869
:1005B00078440A3800F0A7FA37482F4A35A1784422
:1005C00000F0FCF920B9344878440A3800F09BFA6E
:1005D00032482A4A2FA1784400F0F0F920B92F4878
:1005E00078440A3800F08FFA40232248DC000021CA
:1005F000224600F0BFF920B125487844543800F075
:1006000082FA1D4822464023002100F0B3F920B1B0
:1006100021487844543800F076FA184822461023CE
:10062000002100F0A7F9002806D01C487844BDE856
:100630001040563800F067BA10BD104870B5006D14
:1006400020F001040B4800F02FFA0B4800F02CFAC0
:100650000A4800F029FA09E0206D20F00105204643
:1006600000F022FA204600F073F82C46002CF3D15B
:1006700070BD0000180000206C000020C0000020A9
:100680000C00002010000020140000207200000068
:10069000290B000077000000150B0000010B000083
:1006A0000EB5CDE9000100F0C9FB029069460120BA
:1006B000ABBE0EBD08B5694600900220ABBE08BDBA
:1006C0001FB58DE8070069460520ABBE04B010BD1C
:1006D0001FB58DE80F0069460620ABBEF6E708B5EA
:1006E000694600900920ABBE08BD1CB5CDE90001EC
:1006F00069460A20ABBE1CBD704708B5694600902C
:100700000C20ABBE08BD754600F004FAAE460500ED
:100710006946534620F00700854618B020B5FFF71C
:100720009FFDBDE820404FF000064FF000074FF05E
:1007300000084FF0000B21F00701AC46ACE8C009FF
:10074000ACE8C009ACE8C009ACE8C0098D46704708
:1007500070B50446051F00F0E3F90068002C14BFD3
:10076000446870BD002C18BFAC423CBF2046646892
:10077000F8D301680A18AA4218BF456003D12A6855
:1007800005461144016028684119A1421CBF6C60F4
:1007900070BD6168696021680844286070BD2DE9FA
:1007A000F04705460C46C86820F4201040F480004D
:1007B000C860800602D5084600F0FFFAE06841F202
:1007C00082014FF0FF390140022903D0204600F09A
:1007D0009DFAB5E000F42041B1F5004F0FD1C00300
:1007E00006D56168E06A884200D80846606006E085
:1007F0002069E06260606069FFF77FFFA061A06828
:100800000022EEB200280DDAE1688B050AD4C0435D
:10081000A06041F490302260E0606068411C61603B
:100820000670A5E0E0689046226040F40050E06069
:10083000206968BB6069FFF752FF012704F12405B6
:10084000A0B1A08910F4407F08D0E06900F0B3F9AE
:10085000206118B1E06840F4006016E0E7612561AE
:10086000E06820F4407040F480600EE0E06900F041
:10087000A2F900282061F1D0E06840F4006010F493
:10088000407FE06002D140F48070E06020696060E9
:10089000E06825696FF0010AC1051FD56168E06A4B
:1008A000884200D80846411B04D02246284600F062
:1008B00037FAF0BBE068010203D5E562C4E90158EC
:1008C00054E0691CE1626160E16940F48030491ED6
:1008D000C4E9021030462E70BDE8F087010202D54F
:1008E00000F480320AE06068411C61600670E068D4
:1008F0000A2E40F48030E06006D00022E16A606891
:10090000814203D90B4602E00122F7E70346A7899B
:100910005B1B7F0503D4E7699F4200DDE2B18142A2
:1009200000D80146E5620F1AC4E90158002B09DD21
:1009300000E005E022461946284600F0F1F908B12A
:100940004846C9E747B1A069E5626560C01BA06180
:10095000E06840F01000E060E068000208D56168DF
:10096000A069E562491B08446560A0615046B3E791
:100970003046B1E770B5C468A50713D0650211D43D
:10098000B2F5807F09D0B2F5007F06D0B2F5806F56
:1009900008D1012300F1240106E05D1E6FF07F46BF
:1009A000B54201D3012070BD0161C361416024F4EF
:1009B00070611143C160002070BD00002DE9F0415D
:1009C0000C4607461646104600F06EF82078611C6B
:1009D00061280AD0722802D077283CD102E0012594
:1009E000002405E00225042402E0082448F2020560
:1009F00011F8010B2B2806D0622809D011F8010C40
:100A000074280AD00BE045F0030544F00204EFE738
:100A100045F0040544F00104EAE744F010043846C8
:100A20002146FFF73DFE411C15D000213161716068
:100A30004FF40071F560F1617061200704D5304614
:100A40000222002100F0E6F8306D40F00100306530
:100A50003046BDE8F0810020FBE72DE9F0410D466E
:100A60000646104C206DC10704D0410804D020F088
:100A70000104F7E722460EE0542000F09CF807003E
:100A80000ED0206D47F001010843542120653846FF
:100A9000FFF7B8FC3A4629463046BDE8F0418DE7FD
:100AA0000020D6E7180000202DE9F04704464FF05B
:100AB00000094FF0FF37C568D4E90486A80707D0BE
:100AC000204600F057F93046FFF7F4FD002802DA1F
:100AD0003846BDE8F087280502D54046FFF738FEC6
:100AE0004C212046FFF78EFC206D20F00100206590
:100AF0004846EEE710B50446AFF300802046BDE857
:100B00001040FFF799BB10B500F07EF9BDE810402A
:100B100000F074B9004870471401002070470000CD
:100B2000004870471C0100207047704770477047AD
:100B300038B504460A4600206946AFF30080002815
:100B400008BF38BD02460099204600F0A4F90120F4
:100B500038BD012000F0F3B9F8B5AFF300800546C9
:100B600000200C46102000BF0646A819A0420DD94F
:100B7000324669460020AFF30080070008BF00F04E
:100B8000DEF90098A04218BF0546C419FFF7C8FF58
:100B900005600746F01D20F007004619284600F0C2
:100BA00073F9B44208BFF8BDA21B31463868BDE8EE
:100BB000F84000F070B970B50646FFF7B1FF056860
:100BC00006F10B0020F00704B4429CBF002070BD6A
:100BD0002B466A68BAB11068A04210D304F108012C
:100BE00088423CBF5068586007D351681019416073
:100BF0001168091B016058601460101D70BD134618
:100C00005268002AE7D121462846FFF791FF0028C5
:100C1000DED170BD2DE9F041044616460D46476908
:100C2000007B80072ED03846FFF759FD50BB3EB3FE
:100C3000012E02D0022E25D104E0204600F045F915
:100C400005441DE03846FFF758FDE168002841F0F3
:100C50001001E16005DA204600F058F80120BDE8F7
:100C6000F081C9030BD56268E16A914200D8114650
:100C7000A26911442269891A814200DD08460544AF
:100C8000002D01DA0220EAE7E16A6068E268814249
:100C900006D29103E06203D522F4003141F0100244
:100CA000A6690027AE4213DCE16A814201D90B46F6
:100CB00000E0034603EB060C2369ACEB030CAC45E8
:100CC00006DD814201D98C4600E084469C4505D171
:100CD000A760276042F02000A5620DE0AD1BE66929
:100CE000AE1B8142A66000D90846C01A281A2060AF
:100CF0005819606022F0200003490840E06000209D
:100D000084F84870ABE70000BFCFD7FFC16821F47B
:100D1000001141F08001C1600021816001607047D5
:100D20002DE9F047814614460E464FF0FF38324811
:100D3000D5685769054209D03846A169FFF7D5FC47
:100D4000002811DB2C48C0430540E5602B463246A5
:100D500049463846FFF7B4FCA16920F00042B21AB8
:100D600011440028A16103D02046FFF7CFFF404681
:100D7000BDE8F08770B504460569C06A61688842BD
:100D800000D80846E16821F42011E160C90312D5BA
:100D9000A84208D02246411B2846FFF7C1FF10B1E8
:100DA0004FF0FF3070BD0020E562C4E90150E068FB
:100DB00020F48030E060002070BD10B50446C068AB
:100DC00020F02000E060A16AA06988420DD0204692
:100DD000FFF7D0FFE06820F4405040F01000E060E2
:100DE000A06AA0612069E062606044F24001E068AE
:100DF0008843E06010BD000010000200002801D010
:100E000000F03CB87047000010B5014602A000F0A9
:100E10007DF8012010BD000053494752545245440B
:100E20003A2052656469726563743A2063616E2783
:100E300074206F70656E3A200000000010B5431CEE
:100E400002E010F8011B71B18107FAD14FF00132B5
:100E500002C88C1A8C4314EAC211F9D0C01A0A06CF
:100E600003D0C01E10BDC01A10BD0A0401D0801EE0
:100E700010BD0902FCD0401E10BD00000149182021
:100E8000ABBEFEE72600020000210160C0E90110B0
:100E9000704710207047034640688C46002818BFF2
:100EA00088423CBF03464068F8D31868184488421B
:100EB00007D00CF1030020F00700001D411A521A60
:100EC0000146081D0A60FFF743BC10B50146C26821
:100ED000900703D0900607D5886A0AE000F03EF834
:100EE00001210160881E10BD8B69486818440B6998
:100EF000C01A91F848301BB191F84910401A10BD42
:100F00001103FCD50028FADD401E10BD70B5054662
:100F10000C460A2000E06D1C00F018F835B1287866
:100F20000028F8D102E0641C00F010F814B1207819
:100F30000028F8D1BDE870400A2000F007B810B5CD
:100F400000F010F8BDE81040FFF758BF08B569463B
:100F50008DF800000320ABBE08BD000000487047BC
:100F60001401002010B5012805D0002103A0FFF7CF
:100F7000CDFF012010BD09A1F8E7000053494752F9
:100F8000544D454D3A204F7574206F662068656159
:100F900070206D656D6F7279000000003A20486521
:100FA0006170206D656D6F727920636F72727570FC
:100FB00074656400FEE77047024881680278114456
:100FC0008160704700000020FEE7FEE7FEE7704703
:100FD0007047FFF7F1BF00000B48016841F4700152
:100FE00001600A48016841F001010160002181604F
:100FF0000268074B1A4002608214C260026822F441
:10100000802202608161704788ED00E0001002409C
:10101000FFFFF6EAFEE78A68002A01DCFFF7BFBBA4
:10102000521E8A604A68C0B2531C4B6010707047F1
:1010300010B53424214608A0FFF724F9E0B2342883
:1010400006D0122806D007A0FFF71CF9002010BD1B
:1010500008A0F9E70BA0F7E7703D25236868780A38
:1010600000000000756E6B6E6F776E20656E6469B0
:10107000610A00006C6974746C6520656E64696156
:101080006E0A000062696720656E6469610A00008B
:101090004FF04070E1EE100A704730313233343592
:1010A00036373839414243444546403058003031A4
:1010B00032333435363738396162636465664030BF
:1010C0007800040000080000000000000002000199
:1010D0000000103A7474003A7474003A747400009A
:1010E000001100080000002018000000C8010008DE
:1010F000181100081800002060070000E401000833
:1011000001000000100000000000000000000000CE
:081110000000000000000000D7
:040000050800018D61
:00000001FF
